:020000040800F2
:1000000000040020C101000871430008714300088A
:1000100071430008714300087143000871430008F0
:1000200071430008714300087143000871360008ED
:1000300071430008714300087143000871430008D0
:1000400071430008714300087143000871430008C0
:1000500071430008714300087143000871430008B0
:1000600071430008714300087143000871430008A0
:100070007143000871430008714300087143000890
:100080007143000871430008714300087143000880
:100090007143000871430008714300087143000870
:1000A0007143000871430008714300087143000860
:1000B000B1620008714300087143000871430008F1
:1000C0007143000871430008714300087143000840
:1000D0007143000871430008F110000871430008E3
:1000E0007143000871430008714300087143000820
:1000F0007143000871430008714300087143000810
:1001000071430008714300087143000871430008FF
:1001100071430008714300087143000871430008EF
:1001200071430008714300087143000871430008DF
:1001300071430008714300087143000871430008CF
:10014000714300087143000871430008F15400082E
:1001500071430008714300087143000871430008AF
:10016000714300087143000871430008714300089F
:10017000714300087143000871430008714300088F
:10018000714300087143000871430008714300087F
:10019000714300087143000871430008714300086F
:1001A000714300087143000871430008714300085F
:1001B000714300087143000871430008714300084F
:1001C00072B6254880F30988022080F31488BFF3B3
:1001D0006F8F05F045FB05F093FA20482049214A2E
:1001E00091423CBF41F8040BFFF7FABF1E491A4A7F
:1001F00091423CBF41F8040BFFF7FABF1B491C4A70
:100200001C4B9A423EBF51F8040B42F8040BFFF717
:10021000F8BF00201849194A91423CBF41F8040B2D
:10022000FFF7FABF05F014FB154C164DAC4280F2F7
:10023000058054F8041B8847FFF7F8BF05F018FB4A
:10024000114C124DAC4280F2058054F8041B8847D3
:10025000FFF7F8BF05F0F4BA0008002055555555D2
:100260000000002000040020000400209874000812
:1002700000080020B8080020B80800204C15002015
:10028000C0010008C0010008C0010008C00100084A
:100290002DE9F04FC1F80CD0D0F80CD0BDE8F08FAC
:1002A000002383F311882846A047002005F090FA28
:1002B00005F0BEFA00DFFEE70000000000000000CD
:1002C000034B00224FF4A47159601A609A60704782
:1002D000C8080020AFF30080AFF30080AFF30080C8
:1002E000704700BFAFF30080AFF30080AFF3008032
:1002F000202383F3118862B672B683F3118862B645
:10030000002383F3118862B6704700BFAFF300800B
:10031000704700BFAFF30080AFF30080AFF3008001
:10032000034B00224FF4A47159601A609A60704721
:100330000C080020AFF30080AFF30080AFF3008023
:1003400000207047AFF30080AFF30080AFF3008070
:10035000024B00221B605B609A60704730080020EF
:10036000074A10B52023946983F31188032003F012
:10037000E7FC236A002BF9D0002383F3118810BD1A
:1003800008120020AFF30080AFF30080AFF30080CD
:1003900010B5044C204603F00BFD2046BDE810408C
:1003A00003F06EBC00080020AFF30080AFF30080C4
:1003B00010B5064CA3695B7F5A0706D4044803F0C6
:1003C000F7FCA3695B7F5B07F8D510BD081200201E
:1003D000B8080020AFF30080AFF30080AFF30080D7
:1003E00010B5202383F31188154CA3680133002B2B
:1003F000A3601BDD013B002BA360114A06DB03F069
:10040000D7FB0020002383F3118810BD0D495368EA
:100410008C69052084E80C001C602262546003F0A3
:100420008FFC206A002383F3118810BD20680368C5
:1004300023605C6003F0E4FC0022A3680262D9E759
:100440000008002008120020AFF30080AFF3008006
:10045000007803F07DB900BFAFF30080AFF30080F8
:10046000412003F075B900BFAFF30080AFF3008007
:10047000422003F06DB900BFAFF30080AFF30080FE
:10048000432003F065B900BFAFF30080AFF30080F5
:1004900010B50446034803F08BFC2078BDE81040FB
:1004A00003F056B900080020AFF30080AFF30080DE
:1004B000007803F04DB900BFAFF30080AFF30080C8
:1004C00038B5064C0546204603F0FAFD287803F0BF
:1004D0003FF92046BDE8384003F052BD2008002017
:1004E00038B5064C0546204603F0EAFD287803F0AF
:1004F0002FF92046BDE8384003F042BD3008002007
:10050000F8B50746164803F0DBFD202383F3118876
:10051000144B154D9C69A66B304603F009FD25620E
:100520002B4603E09968A268914202D31B68AB4254
:10053000F8D15A6862602360072014605C6003F0A1
:10054000FFFB304603F054FD002383F31188387815
:1005500003F0FEF80248BDE8F84003F011BD00BF0B
:10056000300800200812002018080020AFF3008097
:1005700038B5094D044603F0CBFA03F0C9FA03F08D
:10058000C7FA03F0C5FA2368AA6904332360537FCE
:100590005B07F0D538BD00BF08120020AFF3008024
:1005A00010B52F482F4C03F0FBF84FF4A87003F060
:1005B00007F9204603F0DCF82B4803F0F1F844205B
:1005C00003F0FEF8204603F0D3F8284803F0E8F8DB
:1005D000142003F0F5F8204603F0CAF8244803F08D
:1005E000DFF80C2003F0ECF8204603F0C1F82148B6
:1005F00003F0D6F8042003F0E3F8204603F0B8F83F
:100600001D4803F0CDF8142003F0DAF8204603F07B
:10061000AFF81A4803F0C4F8102003F0D1F82046D0
:1006200003F0A6F8164803F0BBF8082003F0C8F85A
:10063000204603F09DF8134803F0B2F8242003F09D
:10064000BFF8204603F094F80F4803F0A9F82820DB
:1006500003F0B6F82046BDE8104003F089B800BFAB
:1006600030670008406700084867000858670008BE
:1006700068670008786700088867000898670008BE
:10068000A8670008B8670008C8670008AFF30080D3
:1006900010B54121044603F0CBFB2046422103F074
:1006A000C7FB20464321BDE8104003F0C1BB00BF9B
:1006B000F0B41C4D2E464FF0804756F81C4F036196
:1006C000012998BF0221B442C2607B6A1BD0AE6A86
:1006D000A26819448B1B934238BF7963934204D9B3
:1006E00024689B1AA2689A42FAD362684260046046
:1006F000106060608360A2684FF0FF31D31AA3607E
:100700006962F0BC704701EB030C00260222AB6269
:10071000E8612862046044608160C7F834C03E61CB
:10072000FA60EEE708120020AFF30080AFF300801C
:1007300030B54B1C87B0054611D00C4C0C4AA36950
:1007400001A8FFF7B5FF284603F0FAFA049B13B19E
:1007500001A803F01DF9A369186A07B030BD034C66
:1007600003F0EEFAA369186A07B030BD0812002042
:10077000D1360008AFF30080AFF30080AFF3008004
:1007800010B4024659B1084B44689B69042083E8C1
:100790001400236053605DF8044BFFF7C9BF4FF0AE
:1007A000FF305DF8044B704708120020AFF3008063
:1007B000014B5B6883607047001000E0AFF300807E
:1007C00043698269934210B51DD084685A1C013474
:1007D000426184601970426903699A420CD20368CD
:1007E00098420ED01A6802600024506018461C62BD
:1007F00003F006FB204610BDC368436103689842BE
:10080000F0D1002010BD8268002ADED06FF0030016
:1008100010BD00BFAFF30080AFF30080AFF30080E6
:1008200008B5202383F31188064B1868984205D039
:1008300002681A605360002103F0F2F9002383F389
:10084000118808BD18080020AFF30080AFF30080C6
:10085000084B1A689A4210B409D011681960002434
:100860004B60146210465DF8044B03F0C9BA5DF8A2
:10087000044B704718080020AFF30080AFF30080EE
:10088000202383F31188044B9A690023506B536330
:1008900083F31188704700BF08120020AFF3008077
:1008A000FFF7EEBFAFF30080AFF30080AFF300803F
:1008B000FFF7E6BFAFF30080AFF30080AFF3008037
:1008C000FFF7DEBFAFF30080AFF30080AFF300802F
:1008D0000B4A10B52023946983F31188636B33B9F5
:1008E0004FF0FF3323620A2003F02AFA636B584269
:1008F000184023EA00036363002383F3118810BDCB
:1009000008120020AFF30080AFF30080AFF3008047
:100910000B4A10B52023946983F31188606B30B9BA
:100920004FF0FF330A20236203F00AFA606B636B17
:1009300023EA00036363002383F3118810BD00BF23
:10094000081200200000000000000000000000006D
:1009500038B50C4B5A6A002A10DD9C685D68211D71
:10096000013AA9425A62996028BF1A682060064875
:1009700028BF9A6003F06CFC002038BD4FF0FF30B8
:1009800038BD00BF4008002050080020AFF30080B1
:100990000C4B596A002910B510DDDA681C68043A5E
:1009A0000139A2425962DA6002D25A68043ADA6026
:1009B0001060054803F04CFC002010BD4FF0FF30E4
:1009C00010BD00BF4008002050080020AFF3008099
:1009D0000C4B9A69002A10B511DD511EDA68996135
:1009E0005968146804328A42DA60046028BF1A68C1
:1009F000054828BFDA6003F02BFC002010BD4FF043
:100A0000FF3010BD400800205C08002000000000FE
:100A1000438913F0010210B403D001205DF8044BA8
:100A20007047016DD1F8004B43F0010344F080643E
:100A300043811046C1F8004B5DF8044B704700BF7E
:100A4000038913F0010110B403D001205DF8044BB9
:100A50007047026DD2F8004943F0010344F00444AA
:100A60000381C2F80049D2F834385DF8044B43F0F2
:100A700001030846C2F83438704700BFAFF3008066
:100A80002DE9F0031E4B0022022407270F264FF00A
:100A900001084FF0030C1DE0D3F8209029EA010172
:100AA0000D431D62596808FA02F521EA05015960F3
:100AB00051009D680CFA01F1C9430D409D60DD684D
:100AC0000D40DD601D68294021431960400814D0A5
:100AD000A400013202F00701890010F0010F07FAAB
:100AE00001F506FA01F1F1D0072AD5D9D3F82490FF
:100AF00029EA01010D435D62D4E7BDE8F0037047C8
:100B000000000240AFF30080AFF30080AFF300803D
:100B10000A4B30B403F114002025002453F8042FAD
:100B20003AB185F31188517F41F00401517784F384
:100B300011888342F2D130BC704700BF54130020AB
:100B400010B4202383F311884FF080440023646A9B
:100B500083F31188641A511A8C4206D3054C064956
:100B6000064A012323700B70106018465DF8044B91
:100B7000704700BFC00F0020900F0020980F00208A
:100B8000F0B40E4E0E4F35683B4605E013F8014BAE
:100B900011F8012B944207D1AB42F7D30B781BB964
:100BA00037601846F0BC7047064C0749074A0123D6
:100BB000237010600B701846F0BC7047C40F002003
:100BC000F4110020C00F0020900F0020980F00208B
:100BD00010B451B9074C0849084A0123237010602A
:100BE0000B7018465DF8044B7047002318465DF8FB
:100BF000044B7047C00F0020900F0020980F00207A
:100C000010B51E4B1E489A691E4B92681E4C82B04E
:100C10000021013200914FF4A47103F051F81B4BF5
:100C20001860FFF7DDFB21680A1B5142514101208A
:100C3000FFF7CEFF08B102B010BDA168D1F10101EC
:100C400038BF00210220FFF7C3FF0028F3D1FFF7D0
:100C5000C7FB21680B1B594259410320FFF7B8FF1E
:100C60000028E8D1A168D1F101014FF0040038BF9C
:100C7000002102B0BDE81040FFF7AABF0812002013
:100C800028090020910300080008002058130020C4
:100C900038B5202484F31188012003F001FB0023E0
:100CA00083F3118880F00101C9B20120FFF790FFA2
:100CB000054600B138BD84F31188022003F0F0FA34
:100CC00085F3118880F00101C9B20220FFF780FF8F
:100CD00005460028EED184F31188042003F0E0FAE1
:100CE00085F3118880F00101C9B20320FFF770FF7E
:100CF00005460028DED184F31188082003F0D0FADD
:100D000085F3118880F00101C9B20420BDE83840A4
:100D1000FFF75EBFAFF30080AFF30080AFF300805A
:100D200070B582B001A9002003F0DAF9102100208B
:100D300003F046FA011C044618BF01210120FFF709
:100D400047FF054608B102B070BD204603F0E8F940
:100D50006FF0FF01284603F033FAD0F1010138BFEC
:100D600000210220FFF734FF0028ECD101A97B48C5
:100D700003F0B6F91021794803F022FA1021054654
:100D8000764803F01DFA10210446744803F018FA5F
:100D90000646284603F0C4F9204603F0C1F9304660
:100DA00003F0BEF969466D4803F09AF9421E5142BC
:100DB00051410320FFF70CFF0028C4D110216748E0
:100DC00003F0FEF910210446644803F0F9F91021FC
:100DD0000546624803F0F4F903F0A2F9284603F04F
:100DE0009FF9204603F09CF969465C4803F078F9C6
:100DF000431E594259410420FFF7EAFE0028A2D1C0
:100E00001121564803F0DCF910210446534803F041
:100E1000D7F90546204603F083F969464F4803F0A9
:100E20005FF9B0F1020CDCF1000151EB0C0105207F
:100E3000FFF7CEFE002886D11021484803F0C0F904
:100E400069460446454803F04BF9012800F08380C9
:100E50006946424803F044F9B0F1020EDEF10001A8
:100E600051EB0E010620FFF7B3FE00287FF46BAFB5
:100E7000284603F055F9204603F052F969463748F1
:100E800003F02EF9461E714271410720FFF7A0FEC4
:100E900000287FF458AF1021304803F091F9102159
:100EA00005462E4803F08CF90446284603F038F92D
:100EB00069462A4803F014F9851E694269410820F1
:100EC000FFF786FE00287FF43EAF2021234803F081
:100ED00077F903F025F9204603F022F969461F4807
:100EE00003F0FEF80138414241410920FFF770FE4E
:100EF00000287FF428AF6946184803F0F1F80099FC
:100F0000164803F05DF969460446144803F0E8F812
:100F1000D0F1010138BF00210A20FFF759FE002857
:100F20007FF411AF204603F0FBF869460B4803F04D
:100F3000D7F8421E514251410B20FFF749FE0028CD
:100F40007FF401AF9DE80A00CB1A594259410C20A9
:100F5000FFF73EFEF7E6014684E700BF08150020D4
:100F6000F8B54B4EB3699C68651C284602F030FE0C
:100F7000B0EB040CDCF10001074651EB0C01012041
:100F8000FFF726FE00B1F8BDB3699968B5EB010E15
:100F9000DEF1000151EB0E010220FFF719FE0028DF
:100FA000F1D1384602F014FE281A41424141032093
:100FB000FFF70EFE0028E6D1B3699968621A514224
:100FC00051410420FFF704FE0028DCD1202383F3E5
:100FD0001188B3699A6802329A6080F31188B36904
:100FE0009968A71C7B1A594259410520FFF7F0FD6B
:100FF0000028C8D1284602F0EBFDB0EB040CDCF170
:10100000000151EB0C010620FFF7E2FD0028BAD1E8
:10101000B3699968B7EB010EDEF1000151EB0E01E7
:101020000720FFF7D5FD0028ADD1B369D96B6F1A42
:10103000794279410820FFF7CBFD0028A3D1E71CB6
:10104000384602F0C5FD281A414241410920FFF708
:10105000BFFD002897D1B36999687A1A514251416E
:101060000A20FFF7B5FD00288DD1B369D96B7B1A33
:10107000594259410B20FFF7ABFD002883D12023B3
:1010800083F31188B3699C60DC6380F311887AE78D
:1010900008120020AFF30080AFF30080AFF30080B0
:1010A000836942699A4210B518D084680169013495
:1010B0005A1C846082618A421C780CD20368984270
:1010C00007D01A680260002150601846196202F0C9
:1010D00097FE204610BDC3688361EFE78268002A4F
:1010E000E3D06FF0020010BDAFF30080AFF30080DB
:1010F0002DE9F0414B4F7D6FD5F80C802B68D90559
:101100009CB25ED4202383F3118814F02F0F08D1F2
:1011100031E0A1066E681DD42C68A4B214F02F0F24
:1011200029D02207F5D014F0080F14BF8021002128
:10113000E30748BF41F02001A60748BF41F0400146
:10114000600748BF41F48071374802F0A9FEA1064C
:101150006E68E1D57B697BB3F1B23448FFF730FBB1
:101160000028D9DA3048802102F09AFE2C68A4B217
:1011700014F02F0FD5D1002383F3118818F0800FBE
:1011800001D022062CD4630612D5202383F31188C4
:101190007A6CBB6C23489A422FD04FF6BF7308EA93
:1011A00003036FF04002EB6000232A6083F3118891
:1011B000BDE8F04102F024BC1B48042102F070FE9F
:1011C000CAE7202383F311884FF40071381D02F021
:1011D00067FE6FF480732B60002383F3118891E71F
:1011E000202383F311881248FFF75AFF00280CDBF5
:1011F0006860002383F31188C5E7836B002BCCD094
:101200000430102102F04CFEC7E70748082102F025
:1012100047FE4FF63F7308EA030343F04003EB60D9
:10122000E7E700BF781100207C1100208411002026
:10123000A8110020AFF30080AFF30080AFF300806F
:101240002DE9F047202382B083F31188934E726911
:10125000B3699A4261D000210120FFF7B9FC002850
:101260003AD180F3118841248C4D2146013428461F
:101270004FF0FF32E4B203F0CBFD452CF4D14FF038
:10128000200A8AF31188A968D1F101014FF0020008
:1012900038BF0021FFF79CFC0746E8B980F31188AE
:1012A000042481464FF020088AF311887B4D28469C
:1012B000FFF7F6FE89F31188C0B202F049FA013C4B
:1012C000F0D188F311886A69AB699A422AD039460D
:1012D0000320FFF77DFC28B1002383F3118802B0BF
:1012E000BDE8F08780F3118804206D49FFF748FCC2
:1012F00004460028F3D1202787F31188674D28463C
:10130000FFF7CEFE033014BF002101210520FFF7B7
:101310005FFC60B184F31188E1E7B168003118BF68
:10132000012199E7AF68003718BF0127CFE780F3A5
:1013300011885C4903460822284603F0B1FDB0F14C
:10134000040CDCF1000151EB0C010620FFF740FC1E
:1013500004460028C3D187F31188A968D1F101019F
:101360004FF0070038BF0021FFF732FC804600280D
:10137000D0D180F311884C4B4C489A694C4B926801
:10138000CDF8008001324FF4A47102F099FC494B72
:10139000186087F311882A69EB68A968D31A591A6B
:1013A000B1F1040EDEF1000151EB0E010820FFF750
:1013B0000FFC10B188F3118891E780F3118800F0D9
:1013C00027FD87F31188EA6829692B68AA61891AC1
:1013D000AB426A61A96018BF6FF0010409D01A68B6
:1013E0003260566018461C6202F00AFD3368B34250
:1013F000F5D1002787F31188202585F311883169FD
:10140000F268B368254C891ACE1A714271410920DD
:10141000FFF7DEFB034610B187F311885FE780F327
:10142000118820490222204603F03AFD0238414249
:1014300041410A20FFF7CCFB034600287FF44FAF61
:1014400018490222204603F02BFD821E51425141D1
:101450000B20FFF7BDFB064600287FF440AF85F365
:101460001188A168D1F1010138BF00210C20FFF7DC
:10147000AFFB014610B186F3118830E780F3118885
:101480000A22204603F0C4FCB0F1FF33594259410F
:101490000D2002B0BDE8F047FFF79ABB900800208E
:1014A00010680008700A0020081200202809002097
:1014B000714E000858130020AFF30080AFF3008096
:1014C00000EB810170B5CB6800221B6A80F83420E4
:1014D000196842685B68836441649368044653B347
:1014E000984740B3E56B94F8443094F84B1094F867
:1014F0004A2042EA0122AA423CBFE263154613F0A9
:10150000800FE36840F09180002D77D15B69052260
:1015100084F8342020461D70DD605D609D602946A2
:1015200002F09EF9202383F311882046FFF788FA02
:1015300085F3118870BD94F8443013F0600616D01E
:10154000226DD2F80019636841F40011C2F8001945
:10155000D2F8001B1B6841F40011C2F8001B13B144
:10156000204605219847062384F8343070BD94F84E
:10157000455003F07F0242EA0525B5F5407F00F0B3
:10158000168117D9B5F5C06F00F0EE807AD9B5F5A0
:10159000106F00F08A8040F60242954200F0008110
:1015A000B5F5006FCCD104F14F0201252664A2638A
:1015B000E5639AE7022D00F0BE8040F2B280B5F5F7
:1015C000807F00F09E80B5F5817FB9D194F84620E8
:1015D000002AB5D194F8482012F00F0160D0236D95
:1015E000120603EB411100F11281D1F8003B23F404
:1015F0000013C1F8003B94F8443051E09B69A26BA2
:101600000026042184F834102046DA605D601E70E4
:101610009E60314602F04CF9202383F31188204666
:10162000FFF7F6F986F3118870BDB5B15B69A26B5F
:101630000026012184F834102046DA605D601E70B7
:101640009E60314602F00CF9202383F31188204676
:10165000FFF7F6F986F3118870BD9B69032284F8C1
:10166000342020461D70DD605D609D60294602F0DB
:101670001FF9202383F311882046FFF7C9F985F36A
:10168000118870BD40F20232954221D0B5F5A06FAD
:101690007FF456AFB4F84420B2F5A06F00F09F80FD
:1016A0000025A563E56325641FE794F8462084F8C8
:1016B0004F20002A40F08B8003222270626812685B
:1016C000002AEDD020460221904794F84430E7E705
:1016D00094F84620002A7FF433AF94F8482012F0A3
:1016E0000F01DDD0236D03EB4111130600F198804B
:1016F000D1F8003B43F40013C1F8003B94F84430A8
:10170000CEE794F84620012A7FF41AAFB4F84C20B3
:10171000A66322F00202E66326643546A4F84C2054
:10172000E3E6002D39D1022204F14C012564A163C6
:10173000E2631546D9E694F84820110653BF02F03B
:101740000F0102F00F0202F1480158314901226DE8
:10175000515808047FF5F5AE11F400113AD1354A1D
:10176000E5632164A263C0E6626894F8490094F8D6
:101770004830556894F8471094F8462043EA00230F
:101780002046A84700283FF4DBAE43680568E563C0
:10179000A363266494F84430A7E6012D7FF4D0AE0D
:1017A000254AA26302250022E56322649DE694F89F
:1017B0004620012A7FF4C4AEB4F84C20A66342F060
:1017C0000202E66326643546A4F84C208DE6042226
:1017D000227073E7194AE5632664A26385E694F8EC
:1017E0004620236D84F84E20D3F80008616820F469
:1017F000FE600D6840EA0212C3F8002815B12046C9
:101800000121A847032294F84430227048E7D1F818
:10181000003923F40013C1F8003994F844303FE74D
:10182000D1F8003943F40013C1F8003994F844307A
:1018300036E700BFE067000860680008006800083D
:10184000F0B5202583B085F31188564C0021204641
:1018500002F0B6FD0023014683F31188B1F1FF3E8B
:10186000DEF1000151EB0E010120FFF7B1F908B1E3
:1018700003B0F0BD21680F1B794279410220FFF7C8
:10188000A7F90028F4D1A168D1F101014FF00300BC
:1018900038BF0021FFF79CF906460028E8D1424BEB
:1018A00042489A69424B92680096013A4FF4A471FB
:1018B00002F006FA3F4B186085F3118841F2883137
:1018C000204602F07DFD074686F3118800F0A0FA5D
:1018D000D7F1010138BF00210420FFF779F9002872
:1018E000C6D121680E1B714271410520FFF770F9C6
:1018F0000028BDD1A168D1F101014FF0060038BF29
:101900000021FFF765F906460028B1D103F080F900
:1019100085F311884FF080435F6A86F31188412672
:10192000304601F015FF85F311884FF4FA711D4818
:1019300002F046FD0023014683F31188B1F1FF3226
:10194000514251410720FFF743F9002890D1216807
:101950000B1B594259410820FFF73AF9002887D15B
:10196000A168D1F101014FF0090038BF0021FFF754
:101970002FF90136F6B200287FF47AAF462ECFD188
:101980000A200D49FFF7FCF800287FF471AF0B2007
:1019900007F6C41107F6D81203B0BDE8F040FFF710
:1019A000CFB800BF0008002008120020280900203E
:1019B000E14B00085813002018680008AFF30080BE
:1019C00038B5202585F311880B48002102F068FA0C
:1019D000002402F0EDF884F311884FF4FA7003F05C
:1019E00097F885F311880548214602F059FA02F06C
:1019F000DFF884F3118838BDB4080020680800209F
:101A00002DE9F0433A4E3B4BB2693B4892683B4D5F
:101A1000DFF80C9183B0002405324FF4A4710094D8
:101A200002F04EF9B36928609A683548314B00944A
:101A300004324FF4A47102F043F9B36968609A6804
:101A400030482C4B009403324FF4A47102F038F963
:101A5000B369A8609A682C48264B009402324FF470
:101A6000A47102F02DF9B369E8609A682748214B08
:101A7000009401324FF4A47102F022F9286103F0BE
:101A8000C7F802F07DFCA0462027202687F31188A6
:101A90001F48002102F0ECFB002502F089F888F3D2
:101AA000118899F800300134002BEED0FFF730F8A0
:101AB00086F311881648294602F0DAFB02F078F81E
:101AC00085F3118800F0A4F9124801F069FE204660
:101AD00001F076FE104801F063FE04EB4400400084
:101AE00001F06EFE0D4803B0BDE8F04301F040BECA
:101AF00008120020B1030008280900205813002014
:101B0000700A0020B80B0020000D0020480E0020B5
:101B1000B808002020680008306800084468000801
:101B2000C4080020AFF30080AFF30080AFF3008063
:101B30002DE9F041324C8AB02020246080F31188D6
:101B4000304923680AAD012745F8283D8B69019388
:101B50004FF0FF320023256002970393049283F332
:101B6000118880F311880AAE206846F8140D89693F
:101B700006914FF00208089309922660CDF81C8068
:101B800083F311882168091B18BF01213846FFF72C
:101B90001FF810B10AB0BDE8F0816946204601F097
:101BA00077FF2168091B18BF01214046FFF710F895
:101BB0000028EFD13146204601F06AFF21680A1B58
:101BC000514251410320FFF703F80028E2D10E4EA5
:101BD0000446072501E0013465B125FA04F3DB076B
:101BE000F9D507FA04F256F82430204625EA020512
:101BF0009847F0E705490420FEF7C2FFCAE700BF97
:101C0000B408002008120020F0670008506800089F
:101C100070B52026002502F0ABF8046B86F311881E
:101C2000214601F0FDFF85F31188002CF3D170BD32
:101C300008B5202383F31188002282F3118883F3EF
:101C40001188EFF312831BB902F082FB01F0D8FF79
:101C5000002383F3118808BDAFF30080AFF3008049
:101C600070B5314B314C05222025002085F31188B9
:101C700021681960236080F311886168013A0B4480
:101C8000F4D10525294801F0EBFE011C18BF012104
:101C90000120FEF79DFF002834D1013DF2D12348F9
:101CA00001F0DEFED0F1010138BF00210220FEF775
:101CB0008FFF38BB1E4B202003F1140653F8042F6E
:101CC00080F3118821681160226085F31188B34286
:101CD000F4D10524154D284601F0C2FE011C18BFA1
:101CE00001210320FEF774FF60B9013CF2D12846C0
:101CF00001F0B6FED0F1010138BF00210420FEF74B
:101D000067FF00B170BD10220A4B2C6028466A6044
:101D1000AB6001F0A5FED0F1010138BF0021052024
:101D2000BDE87040FEF754BF280900200C080020D1
:101D3000CC68000841030008AFF30080AFF30080D7
:101D4000F0B5134B134F9B6983B09E6802F060FFA0
:101D500002F016FB0024013E25460F4B00954FF480
:101D6000A47132460D4801F0ABFF04F0A9FC3B78AA
:101D70000134002BF1D00A4801F012FD204601F099
:101D80001FFD084803B0BDE8F04001F0F1BC00BF02
:101D900008120020C408002021580008280900204B
:101DA0002068000870680008AFF30080AFF300807F
:101DB0002DE9F84381464FF0200888F31188104E32
:101DC0003069837F01338377002585F311882F469F
:101DD00000E02046484508BF45F0010588F311881A
:101DE0000469B4421DBFA37F0133A377002487F3A6
:101DF000118804F035FC002CEBD12846BDE8F883AF
:101E000008120020AFF30080AFF30080AFF3008032
:101E100070B5074C002604F1140554F8043B18462D
:101E20001BB104F04DFC44F8046CAC42F5D170BD1C
:101E300058130020AFF30080AFF30080AFF30080B1
:101E400010B5134B13489A69134B926882B0002166
:101E5000013A00914FF4A47101F032FF0F4B18606A
:101E600004F04EFC0446FFF7D3FF0D4801F098FC48
:101E7000204601F0A5FC0B4801F092FC600001F047
:101E80009FFC094802B0BDE8104001F071BC00BFE2
:101E90000812002028090020111C000858130020F7
:101EA000206800087C68000844680008AFF30080E0
:101EB00010B5134B13489A69134B926882B00021F6
:101EC000013200914FF4A47101F0FAFE0F4B18603B
:101ED00004F016FC0446FFF79BFF0D4801F060FC80
:101EE000204601F06DFC0B4801F05AFC600001F047
:101EF00067FC094802B0BDE8104001F039BC00BFE2
:101F00000812002028090020111C00085813002086
:101F1000206800087C68000844680008AFF300806F
:101F20002DE9F0412C4F2D4DBA692D4B92682D4C67
:101F3000DFF8C08082B000260132284600964FF4B8
:101F4000A47101F0BDFEBB6920609A68009643460B
:101F5000023A05F5A4704FF4A47101F0B1FEBB691B
:101F600060609A6800964346033A05F524704FF482
:101F7000A47101F0A5FEBB69A0609A680096434673
:101F8000043A05F576704FF4A47101F099FEBB692F
:101F9000E0609A680096053A43464FF4A47105F54F
:101FA000A46001F08DFE2061206804F0A9FB0446C6
:101FB000FFF72EFF0C4801F0F3FB204601F000FC78
:101FC0000A4801F0EDFB600001F0FAFB084802B09E
:101FD000BDE8F04101F0CCBB081200202809002028
:101FE000111C000858130020206800087C680008B5
:101FF0004468000821580008AFF30080AFF3008068
:102000002DE9F047254B26489A69264B9268DFF860
:10201000A49082B0002501324FF4A471009501F024
:102020004FFE214B0446186002F0F2FD02F0A8F9C1
:10203000A8462027202687F311880021204601F09A
:10204000EFFD2046002101F0EBFD2046002101F0CC
:10205000E7FD2046002101F0E3FD4FF0000A88F380
:10206000118899F800300435002BE3D086F31188ED
:102070004FF0FF31204601F0D3FD8AF31188FFF7BE
:10208000C7FE0A4801F08CFB680001F099FB084884
:1020900002B0BDE8F04701F06BBB00BF08120020A2
:1020A0002809002061030008581300202068000858
:1020B00044680008C4080020AFF30080AFF300803C
:1020C0002DE9F04184B004ACDFF8CC802D4F2E4ECA
:1020D0002E4D002344F8043D02F09AFDD8F8183044
:1020E0009A6800943346013A38464FF4A47101F0DF
:1020F000E7FDD8F8183028609A6800943346013A12
:1021000007F5A4704FF4A47101F0DAFDD8F8183087
:1021100068609A6800943346013A07F524704FF4DA
:10212000A47101F0CDFDD8F81830A8609A68009429
:102130003346013A07F576704FF4A47101F0C0FD03
:10214000D8F81830E8609A680094013A33464FF4A2
:10215000A47107F5A46001F0B3FD286142F210708C
:1021600002F0D6FCFEF7D4FCFFF752FE084801F05F
:1021700017FB039801F024FB064801F0F9FA04B0BC
:10218000BDE8F081280900207105000858130020DF
:10219000206800084468000808120020AFF300809F
:1021A00070B5284E2848B369284D9C6882B001F06C
:1021B00087FF274B0093621C264B27484FF4A471DE
:1021C00001F07EFD254B2860A21C00934FF4A47102
:1021D000204B234801F074FD224B6860E21C009301
:1021E0004FF4A4711B4B204801F06AFD1F4BA860FF
:1021F000221D00934FF4A471164B1D4801F060FDA1
:102200001C4BE8604FF4A471621D00931A48114BF7
:1022100001F056FD28610C4801F0B2FEFFF7F8FD11
:10222000B3699968631A594259410120FEF7D0FCFD
:1022300008B102B070BD1149022002B0BDE8704083
:10224000FEF79EBC08120020300800205813002022
:102250001C680008E10400082809002088680008BC
:10226000700A00208C680008B80B002090680008F5
:10227000000D002094680008480E0020186800082F
:102280002DE9F0418A4D8B4AAB698B489C688B4B9A
:102290008B4E82B0671C00924FF4A4713A4601F055
:1022A0000FFD04F10208874B30604FF4A4714246E1
:1022B00000938548854B01F003FD7060844801F070
:1022C000FFFEAB699968631A594259410120FEF734
:1022D0007FFC10B102B0BDE8F0814FF47A7002F0DB
:1022E00017FCAB699968B7EB010CDCF1000151EB0D
:1022F0000C010220FEF76CFC0028EBD1754801F0C0
:10230000DFFEAB699968B7EB010EDEF1000151EB1E
:102310000E010320FEF75CFC0028DBD14FF47A703D
:1023200002F0F6FBAB699968B8EB010251425141EA
:102330000420FEF74DFC0028CCD1664801F020FEB9
:10234000AB6999687B1A594259410520FEF740FC58
:102350000028BFD14FF47A7002F0DAFBAB699968BC
:10236000B7EB010CDCF1000151EB0C010620FEF78C
:102370002FFC0028AED101F0ABFDAB699968B4EB3E
:10238000010EDEF1000151EB0E010720FEF720FCEB
:1023900000289FD1FFF73CFD4F4B00934FF4A471F1
:1023A000464B45483A4601F08BFC4C4B30604FF4AD
:1023B000A471424600934448444B01F081FC706094
:1023C000434801F07DFEAB699968621A5142514160
:1023D0000820FEF7FDFB00287FF47CAF4FF47A70F5
:1023E00002F096FBAB6999687B1A59425941092062
:1023F000FEF7EEFB00287FF46DAF364801F060FE7B
:10240000AB699968B7EB010CDCF1000151EB0C01F1
:102410000A20FEF7DDFB00287FF45CAF4FF47A70F2
:1024200002F076FBAB699968B8EB010EDEF10001B2
:102430004FF00B0051EB0E01FEF7CAFB06460028D9
:102440007FF448AF202383F31188224801F070FD08
:1024500001F0AEFB86F31188AB6999687E1A714270
:1024600071410C20FEF7B4FB00287FF433AF4FF42A
:102470007A7002F04DFBAB6999687A1A514251416A
:102480000D20FEF7A5FB00287FF424AF01F020FD0E
:10249000AB699968631A594259410E20FEF798FBBF
:1024A00000287FF417AF02B0BDE8F041FFF7B0BCE1
:1024B000081200209068000828090020C14B00087D
:1024C0005813002094680008700A0020A14B0008EF
:1024D0002008002030080020886800088C68000868
:1024E000F0B52C4B2C4E9B692C4D9F682C4B2D4CE2
:1024F00083B07A1C009330462B464FF4A47101F050
:10250000DFFB29492060BA1C2B46009106F5A47018
:102510004FF4A47101F0D4FB24496060FA1C2B46EF
:10252000009106F524704FF4A47101F0C9FB204915
:10253000A0603A1D2B46009106F576704FF4A47109
:1025400001F0BEFB1B49E0602B4600917A1D06F5A9
:10255000A4604FF4A47101F0B3FB2023206183F346
:102560001188FEF775F9FEF773F9FEF771F9FEF7BA
:102570006FF9FEF76DF901F01BFB002383F311885F
:10258000FFF746FC0C49012003B0BDE8F040FEF720
:10259000F7BA00BF08120020280900200105000832
:1025A0001C68000858130020886800088C68000820
:1025B000906800089468000818680008AFF300806D
:1025C00030B52C4B2C4A9B692C489D682C4B2D4CCC
:1025D00083B04FF4A47100926A1C01F071FB2A4B86
:1025E0002060AA1C00934FF4A471254B274801F0EA
:1025F00067FB274B6060EA1C00934FF4A471204BEB
:10260000244801F05DFB244BA0602A1D00934FF489
:10261000A4711B4B214801F053FB214BE0606A1D64
:1026200000934FF4A471164B1E4801F049FB202380
:10263000206183F311881C4C2368A34218BF6FF0FC
:10264000010509D01A6822601846546001F0D8FBD1
:1026500023680562A342F5D101F0AAFA002383F3AF
:102660001188FFF7D5FB1149012003B0BDE83040C8
:10267000FEF786BA081200201C680008280900200E
:10268000010500085813002088680008700A00201F
:102690008C680008B80B002090680008000D00202E
:1026A00094680008480E00201808002018680008E8
:1026B00070B5194B194D9B69194A9E68194B1A4CF4
:1026C00082B0284600924FF4A471721C01F0F8FA0F
:1026D000164B2060B21C009305F5A4704FF4A47152
:1026E000134B01F0EDFA134B6060F21C4FF4A47130
:1026F000009305F52470104B01F0E2FAA060FEF79C
:102700008FF8FEF78DF8FFF783FB0C49012002B02C
:10271000BDE87040FEF734BA0812002028090020F6
:102720009468000851630008581300208C68000862
:102730000105000890680008C104000850680008FE
:10274000F0B5474D474EAB6947489A68474B484CF0
:1027500083B005324FF4A471009601F0B1FAAB6971
:102760009A68444B2060013200934FF4A4713F4BB0
:10277000414801F0A5FAAB6940499A6860600332AC
:1027800000913A4B3E484FF4A47101F099FAAB69BD
:102790003C499A68A06004320091344B3A484FF4A7
:1027A000A47101F08DFAAB6938499A682F4BE0604B
:1027B0000232009136484FF4A47101F081FA206191
:1027C000344801F05DFA334801F05AFA314801F01B
:1027D00057FA304801F054FA2E4801F051FAFFF749
:1027E00017FB01202C49FEF7CBF9074608B103B0CF
:1027F000F0BDAB691C489A681C4B009605324FF43B
:10280000A47101F05DFA2023206083F31188214D2B
:1028100002242E4601E0013C0DD0AB680133002BB1
:10282000AB60F8DC3068036833605E6001F0E8FAA2
:10283000013C0762F1D101F0BBF984F31188FFF785
:10284000E7FA202383F31188A9684B1E59425941A6
:102850000220FEF7BDF984F3118803B0F0BD00BF7C
:10286000081200209468000828090020910400083C
:102870005813002090680008700A00208C68000837
:10288000B80B002088680008000D00201C680008B4
:10289000480E00200008002018680008AFF30080F0
:1028A000F0B5274F274EBB69274D9A68274B284C18
:1028B00083B0053A009330462B464FF4A47101F0E3
:1028C000FFF9BB6923499A6820602B460091043ABE
:1028D00006F5A4704FF4A47101F0F2F9BB691E492A
:1028E0009A6860602B460091033A06F524704FF415
:1028F000A47101F0E5F9BB6918499A68A0602B46FC
:102900000091023A06F576704FF4A47101F0D8F9FF
:10291000BB6913499A68E060013A2B46009106F5BD
:10292000A4604FF4A47101F0CBF92061FFF770FAB5
:102930000C49012003B0BDE8F040FEF721B900BF0B
:102940000812002028090020B10400081C680008B3
:1029500058130020886800088C68000890680008F8
:102960009468000818680008AFF30080AFF3008097
:102970002DE9F04F444D454EAB69DFF82C819A6844
:10298000434B444F83B0043A0093304643464FF4E0
:10299000A47101F095F9AB693F499A687860A6F592
:1029A000A47443460091053A20464FF4A47101F007
:1029B00087F9AB6939499A68386043460091013A12
:1029C00006F576704FF4A47101F07AF9AB693449D9
:1029D0009A683861023A009106F5247043464FF434
:1029E000A47101F06DF92022F86082F31188AB69BF
:1029F00069699868DFF8B4A0C4F8B483033806F5B1
:102A0000A4734FF0000806F51B7BC4F89802C4F8C5
:102A1000CC02DFF89CC0C4F8A05206F5B6704FF0A7
:102A2000020E06F5B8764FF00109C4F89CB2C4F85E
:102A3000B8A3C4F8D4C384F8ACE2C4F8A41284F8F0
:102A4000AD82C4F8C882C4F8C482C4F8A88284F8ED
:102A5000AE920B616B61BB60C4F8B402C4F8B8629B
:102A6000C4F8BC6288F31188B86882F3118801F059
:102A7000C7F988F31188FFF7CBF90A49484603B034
:102A8000BDE8F04FFEF77CB808120020700A002065
:102A900088680008581300201C6800089468000823
:102AA0009068000818680008B10400088C680008E5
:102AB000A1020008AFF30080AFF30080AFF3008005
:102AC0002DE9F041202482B084F31188994FB96830
:102AD000D1F101014FF0010038BF0021FEF778F875
:102AE0000646E8B980F3118884F311884124914D9A
:102AF000214601342846E4B2FDF762FE452CF6D1AA
:102B0000002383F31188202383F311886A69AB695A
:102B10009A423BD031460220FEF75AF8044628B1CB
:102B2000002383F3118802B0BDE8F08180F311889F
:102B3000202383F311887F482146FDF741FE0430AE
:102B400014BF002101210320FEF742F8C8B980F329
:102B500011880424774D4FF0FF31284602F0C8F861
:102B6000C0B200F0F5FD013CF4D1202686F31188B7
:102B7000A968D1F1010138BF00210420FEF728F82F
:102B800048B184F3118802B0BDE8F081AE68003628
:102B900018BF0126BEE784F3118805206649FDF7BA
:102BA000EFFF0028BFD186F311884124614D2146F3
:102BB00001342846E4B2FDF703FE452CF6D100238C
:102BC00083F311885D490822284602F0D1F8061FD8
:102BD000714271410620FDF7FBFF04460028A2D197
:102BE000202686F31188A968D1F1010138BF0021A0
:102BF0000720FDF7EDFF0028C3D180F3118886F38D
:102C0000118841244B4D214601342846E4B2FDF79A
:102C1000D7FD452CF6D1002383F311884749284678
:102C2000022202F0A5F8841E614261410820FDF7EE
:102C3000CFFF00287FF477AF0346404902222846A1
:102C400002F096F80238414241410920FDF7C0FFE9
:102C5000804600287FF467AF202686F31188A96894
:102C6000D1F101014FF00A0038BF0021FDF7B0FF9C
:102C7000044610B188F3118855E780F3118886F374
:102C8000118821462846FDF79BFD2B68EA68AC6059
:102C9000AB42AA616A6118BF6FF0010409D01A68DB
:102CA0003A60576018461C6201F0AAF83B68BB42C4
:102CB000F5D14FF0000888F31188202686F311889B
:102CC000B9681C4DB1EB0802514251410B20FDF790
:102CD0007FFF04460028CDD180F31188184B194896
:102CE0009A69194B9268009401324FF4A47100F074
:102CF000E7FF164B186086F31188A968D1F101012E
:102D000038BF00210C20FDF763FF00287FF439AFA6
:102D100080F31188FFF77CF828460A2101F0E8FFCC
:102D2000B0F1FF33594259410D2002B0BDE8F041E6
:102D3000FDF74EBF6C08002010680008700A0020E4
:102D40000812002028090020414D000858130020D7
:102D50002DE9F84F214E07463046884600F080FEA8
:102D60000446002837D0202383F3118872681C4B57
:102D70001C4DD3F814E01C49A2F1240C00EB0C0B01
:102D8000C0F80CB0022240F80C5000F124090025D4
:102D900000F1280C4FF0010ACBF80480CBF820108A
:102DA00087600361C0F814E0C76380F81EA0027753
:102DB0008563456385612946CEF81000C4F82490E8
:102DC00042770664C4F828C0C4F82CC0586100F0EB
:102DD00027FF85F311882046BDE8F88FC80800203A
:102DE0000812002051040008A1020008AFF300807F
:102DF000304A31499269F8B5304B956803F11007B4
:102E00002026002053F8042F86F311880C681460E4
:102E10000A6080F31188BB42F4D12949294C681E0D
:102E2000FFF796FF28492060A81EFFF791FF27496A
:102E30006060E81EFFF78CFF2549A060281FFFF7A0
:102E400087FF2449E060681FFFF782FF2168206147
:102E500049B1616839B1A16829B1E16819B1D0F10E
:102E6000010138BF00210120FDF7B2FE00B1F8BD1D
:102E7000FEF7CEFF02201849FDF782FE0028F6D1AA
:102E800004240D4800F0ECFD011C18BF01210320B3
:102E9000FDF79EFE0028EAD1013CF2D1064800F081
:102EA000DFFDD0F1010138BF00210420BDE8F8406A
:102EB000FDF78EBE08120020C8080020CC6800086C
:102EC0009468000858130020906800088C68000877
:102ED000886800081C68000810680008AFF30080CC
:102EE00008B5202282F311888368002B05DD00F0ED
:102EF0005FFE002383F3118808BD01F0A9F900F0FB
:102F000057FE002383F3118808BD00BFAFF3008094
:102F10002DE9F0413B4DAB6920229E6882F3118878
:102F2000394CA3680021002B5ED0002383F3118865
:102F30000120FDF74DFE014608B1BDE8F0812023D8
:102F400083F31188A368304A002B54D00121002359
:102F500083F311880220FDF73BFE07460028ECD1E1
:102F6000202383F31188DFF8A080404600F0E0FFC3
:102F700087F3118821680C1B614261410320FDF732
:102F800027FE0028D9D1D8F80810D1F1010138BFA7
:102F900000210420FDF71CFE0028CED1AB69996802
:102FA000721A514251410520FDF712FE0028C4D18A
:102FB000404601F085F800F08BFFD8F80010B1EB27
:102FC0000803594259410620FDF702FE0028B4D1FA
:102FD000D8F80810D1F101014FF0070038BF0021E7
:102FE000BDE8F041FDF7F4BDAB69A3609A6BE26008
:102FF0009C63012199E7AB699360986BD0609A63F9
:10300000A5E700BF0812002030080020AFF30080C1
:1030100038B590F83430062B04460AD8012202FA5B
:1030200003F313F0670F11D113F0080502D1DB068B
:1030300022D438BDC3689B699B68002BF9D1036C0F
:1030400003B19847002384F8343038BD036D4268DB
:10305000D3F80019126841F40011C3F80019D3F82D
:10306000001B41F40011C3F8001B0AB10521904771
:10307000062384F8343038BDC3685B69052280F8C4
:10308000342029461D70DD605D609D6000F0E8FB26
:10309000202383F311882046FDF7D2FC85F31188A5
:1030A00038BD00BFAFF30080AFF30080AFF3008006
:1030B0002DE9F04706460D461D484FF4A47101F076
:1030C0007FF8044680B3202383F31188194BC0F89E
:1030D00028515A69DFF86090DFF86080866000252B
:1030E00000F1280E00F5927A00F1240C012702214C
:1030F000C0F80CA0017703614261C663C0F8249157
:10310000C0F84481856345638561877729461061EE
:10311000C4F824C04777C4F828E0C4F82CE058610C
:1031200000F07EFD85F311882046BDE8F08700BFE2
:10313000D80800200812002051040008A10200084D
:10314000484B49499B69986810B50138FFF7B0FFB3
:1031500004460120A17FB1EB000CDCF1000151EB32
:103160000C01FDF735FD00B110BD202383F311885C
:10317000A37F0133A37780F31188A17F0220B1EBF5
:10318000000EDEF1000151EB0E01FDF721FD0028DC
:10319000EAD1204603F064FAA17F4A1E5142514110
:1031A0000320FDF715FD0028DED12046FEF700FEC6
:1031B00001460420FDF70CFD0028D5D12046FEF77E
:1031C000F7FD01460520FDF703FD0028CCD1204680
:1031D00003F046FAA17FD1F1010138BF002106209A
:1031E000FDF7F6FC0028BFD1217FD1F1010138BFE6
:1031F00000210720FDF7ECFC0028B5D12046FEF7A2
:10320000D7FD01460820FDF7E3FC0028ACD120469D
:10321000FEF7CEFD01460920FDF7DAFC0028A3D118
:103220004FF4FA7001F074FC217FB1F10F035942A1
:1032300059410A20FDF7CCFC002895D12046FEF725
:10324000B7FD01460B20FDF7C3FC00288CD12046BA
:10325000FEF7AEFD80F00101C9B20C20BDE81040C0
:10326000FDF7B6BC0812002094680008AFF3008098
:1032700070B52B4B2B489B692B4C9D6882B001A9E4
:1032800000F02EFF2949681EFFF712FF2849206031
:10329000A81EFFF70DFF69466060224800F020FF7E
:1032A0000099204800F08CFF22490646E81EFFF7EF
:1032B000FFFEA060304600F033FF216821B1616855
:1032C00011B1A16819B300210120FDF781FC08B1FB
:1032D00002B070BDFEF79CFD02201749FDF750FCBF
:1032E0000028F5D169460F4800F0FAFE421E51420F
:1032F00051410320FDF76CFC0028E9D19DE80A004C
:10330000CB1A594259410420FDF762FCE0E7E3681B
:10331000002BD9D12169D1F1010138BF0021D3E7B8
:1033200008120020D80800205813002094680008D4
:10333000906800088C680008A0680008AFF300805F
:1033400070B51F4B1F4899691F4B8A6882B00132C4
:1033500000914FF4A47100F0B3FC1C4B186000F016
:1033600007FD2025066B85F31188314600F058FCD7
:10337000002484F31188F0B200F0EAF900F0F8FCC0
:10338000066B85F31188314600F04AFC84F31188FE
:10339000F0B200F0DDF900F0EBFC066B85F311886C
:1033A000314600F03DFC84F31188F0B200F0D0F912
:1033B0000749012002B0BDE87040FDF7E1BB00BF46
:1033C0000812002028090020910600085813002048
:1033D00050680008AFF30080AFF30080AFF30080C7
:1033E00010B586B0EFF312831BB900F0B1FF00F007
:1033F00007FC202383F31188EFF312831BB900F03D
:10340000A7FF00F0FDFB002383F31188EFF3128385
:1034100013B9202383F31188EFF3128313B9202308
:1034200083F31188002383F31188202282F311880B
:10343000EFF312820AB183F31188EFF3128313B111
:10344000002383F3118800230493202383F311883E
:10345000049B01AC13B1204600F09AFA20460121EA
:103460000B4A0023FDF724F9002484F311880A2075
:1034700001F04EFB202383F31188049984F3118813
:103480000B1B594259410120FDF7A2FB06B010BDAC
:10349000311C0008AFF30080AFF30080AFF3008071
:1034A00038B590F834300446062B1AD8DFE803F01C
:1034B00004382104041A0400036D4268D3F800198B
:1034C000126841F40011C3F80019D3F8001B41F44D
:1034D0000011C3F8001B0AB105219047062384F8A8
:1034E000343038BD036C03B19847002384F834307E
:1034F00038BDC3689B690025032284F8342029461F
:103500001D70DD605D609D60204600F0D1F92023D4
:1035100083F311882046FDF77BFA85F3118838BDC7
:1035200090F84B1090F84A30C26B43EA0123934263
:10353000C368DFD9198AB2FBF1F501FB1525002D0F
:10354000D8D15B6929461D70DD605D609D6000F02B
:1035500087F9202383F311882046FDF771FA85F35C
:103560001188022384F8343038BD00BFAFF30080E7
:103570002DE9F041056D05EB41130646D3F80849E6
:10358000C3F80849E3070F4603D5D5F81038DA0722
:103590000AD4230606D50122D5F8343802FA07F7F3
:1035A0001F422BD1BDE8F08100EB8103DA6853693B
:1035B000D3F804E0D3F810C0E64538D2CEEB0C02C5
:1035C0004FF000085A60C3F8088000F049F9202342
:1035D00083F31188336D03EB47120120D2F80019F1
:1035E00041F00441C2F80019D3F8341800FA07F288
:1035F0000A43C3F8342888F31188CAE7202383F3E9
:103600001188F26DD5F83418336E3A4321EA070772
:10361000F265C5F834782BB10022326618461A627A
:1036200000F0EEFB002383F31188BDE8F081B0F8D1
:1036300008E093684FF0010C0CFA01F22EEA020246
:1036400002819847A5E700BFAFF30080AFF3008089
:10365000014B01221A707047C4080020AFF30080AC
:10366000024BDA6842F08002DA60704700440040A2
:10367000EFF30983203383F30988002383F3118850
:10368000704700BFAFF30080AFF30080AFF300805E
:10369000202383F31188094A094913680968073010
:1036A00020F00700C91A88429BBFC0181060002094
:1036B0001846002383F31188704700BF940F002041
:1036C000F0110020AFF30080AFF30080AFF3008073
:1036D00010B4202383F31188037F072B0ED8DFE873
:1036E00003F0270D0D2308040D08036A9A680132C0
:1036F0009A6090E80C001A60026853604FF0FF3443
:10370000002281680D4B046202771B689A688A4226
:10371000FBD25A684260036000211060586081F358
:1037200011885DF8044B7047036A00221A60E5E7D0
:10373000002383F311885DF8044B704708120020C2
:10374000FEE700BFAFF30080AFF30080AFF300806F
:10375000202383F31188044A1368591C1160002246
:10376000187082F311887047C40F0020AFF30080F7
:1037700038B50178084D044639B1286803689B685C
:10378000984714F8011F0029F7D1286803490368F6
:1037900002221B68984738BDB8140020B0680008A2
:1037A00038B5017849B1054D0446286803689B681F
:1037B000984714F8011F0029F7D138BDB81400202C
:1037C00070B584B018B30DF10105154E2B46A6FB5C
:1037D0000012D20802EB8201A0EB41013031C9B2E4
:1037E00003F8011C1C4610460133002AEFD16B463A
:1037F0009C420AD90B4E02E014F8021C013C3068CE
:1038000003689B689847AC42F6D104B070BD054B85
:103810001868036830219B68984704B070BD00BFEA
:10382000CDCCCCCCB8140020AFF30080AFF3008037
:1038300070B5084E4C243068064D03682D219B68F6
:103840009847013CF7D128680349036802221B68A6
:10385000984770BDB8140020B0680008AFF300802E
:1038600000EB810330B4DC68626953681361A3B173
:1038700069B15D1E228A006DAC18B4FBF2F200EB58
:10388000411143EAC243C1F8103930BC7047402BA4
:10389000EFD9402353603F25ECE7036D03EB411163
:1038A0004FF40023C1F8103930BC7047AFF30080EB
:1038B00000EB810330B4DC68A2695368136131B94D
:1038C000402B04D940255560094B3F2502E05D1E81
:1038D00043F0C043628A006DAC18B4FBF2F200EB17
:1038E000411143EAC242C1F8102B30BC704700BFFF
:1038F00040000060AFF30080AFF30080AFF30080C2
:10390000F8B5076D07EB41130546D3F8084BC3F82C
:10391000084B22070E4603D5D7F814381B0719D4D5
:10392000E20716D5D7F81438DB0712D505EB860366
:10393000DA68936959681869814211D36989D36833
:10394000012000FA06F221EA02026A813146284685
:103950009847F8BD00EB8103DB685B689847DFE7B9
:10396000411A002459609C6028463146FFF7A0FFA9
:10397000202383F311882B6D03EB4616D6F8003B0A
:1039800043F08063C6F8003B84F31188F8BD00BFA4
:103990001A4AD369834210B410D0416803680B609F
:1039A00003681C32002493425960C46003D08168CC
:1039B0009A680A449A605DF8044B7047104619688B
:1039C00040F81C1F002481424860DC6011D08C68E4
:1039D0009B68906A23444FF080428B60516A081ABA
:1039E0008342E8D91B1A012B98BF02230B4453636F
:1039F000E1E74FF08043DC60DDE700BF0812002004
:103A0000202383F311880F4B5B6813F4006302D10A
:103A100083F311887047EFF309834FF0807243F806
:103A2000042CA3F1200282F30988074A11689269E5
:103A30008968926891428CBF044A054A43F8082C71
:103A4000704700BF00ED00E008120020B10200083E
:103A5000B4020008AFF30080AFF30080AFF3008042
:103A600008B52022034682F31188006828B1026855
:103A70001A60002383F3118808BD9A68002AF8D0E1
:103A800058689047002383F3118808BDAFF3008086
:103A9000202383F31188024602E08B4207D01A46A6
:103AA00013688342F9D1002383F3118870470B68B0
:103AB0001360002383F31188704700BFAFF30080C9
:103AC0000E4A0F4B5168F0B486685F6FC568446852
:103AD000D0E90423891BC91B521843F100030135A7
:103AE000A142C5608160C0E9042305D803689942FA
:103AF00038BF0160F0BC70474160FBE7001000E098
:103B000008120020AFF30080AFF30080AFF3008015
:103B100070B5202383F31188114A10689569836872
:103B2000AC68A34203D2002383F3118870BD0368FD
:103B30001360012600215A6006779061297700E022
:103B40001B689A689442FBD95A686A602B602946C0
:103B500015605D60FCF79CFB002383F3118870BD4A
:103B600008120020AFF30080AFF30080AFF30080B5
:103B70000D4A106870B4036895691360012600212E
:103B8000AC685A6006779061297700E01B689A68F4
:103B9000A242FBD85A686A602B60294615605D60B6
:103BA00070BCFCF775BB00BF08120020AFF30080AB
:103BB000044B1A689B6992689B689A4200D87047C8
:103BC000FFF7D6BF08120020AFF30080AFF30080EC
:103BD00010B5202383F31188084B9B69DC6B99682F
:103BE0008C4201D0814200D29860D863FFF7E0FF99
:103BF000002383F31188204610BD00BF0812002067
:103C000010B5EFF30584C4F308041CB1002383F35B
:103C1000118810BDFFF7CCFF84F3118810BD00BFE1
:103C2000DFF858C0F0B4DCF818708568BC68016231
:103C3000A54206460DD80022634602771B689A68A3
:103C40009542FBD95A687260336016605E60F0BCC2
:103C5000704700233B7763461B689A689442FBD900
:103C60005A687A6001243B6017605F603477394698
:103C70003046CCF81860F0BCFCF70ABB08120020F4
:103C800008B52022034682F3118882680132002A97
:103C9000826003DD002383F3118808BD0068026899
:103CA0001A6000215360FFF7BBFF002383F31188E4
:103CB00008BD00BFAFF30080AFF30080AFF300801A
:103CC0002DE9F0470446202585F31188184EDFF8CA
:103CD00064A0D6F814E024394718C7600025435083
:103CE00000F1240C00F12803089979604FF00209D3
:103CF0004FF00108C7F820A0294682600661C0F88D
:103D000014E0C26380F81C9080F81E8045778563BC
:103D100045638561CEF81000C0F824C08362C36299
:103D20007061FFF77DFF85F311882046BDE8F087BD
:103D300008120020A1020008AFF30080AFF300805A
:103D4000074B30B41A6899691468087701256360D5
:103D500015771C60104630BC9A61FCF799BA00BF19
:103D600008120020AFF30080AFF30080AFF30080B3
:103D700010B5202383F311880B4CA269134653F826
:103D8000280F984208D0016891620D224B600023F1
:103D9000027783F3118810BD0E20FFF7D1FFA269CF
:103DA000906A02F12803EEE708120020AFF30080CA
:103DB00010B50346202282F311888268013A002A56
:103DC000826004DB0020002383F3118810BD084CBF
:103DD000A26910624168516010600A6005205A6053
:103DE000FFF7AEFFA369186A002383F3118810BDA3
:103DF00008120020AFF30080AFF30080AFF3008023
:103E000000228168084B10B4044602771B689A6848
:103E10008A42FBD25A6862602360204614605C606C
:103E20005DF8044B704700BF08120020AFF300801C
:103E30000E4B70B520229C6982F3118800F1280591
:103E4000067F2562C26A62600E2E216325601460BF
:103E5000C46207D00C20FFF773FF206A002383F3AE
:103E6000118870BDFFF7CCFFF4E700BF08120020F7
:103E7000426B037F11430A2B41630AD00B2B00D006
:103E80007047036A19408B42FAD100230362FFF79F
:103E9000B7BF036A1942F8D1704700BFAFF3008083
:103EA00070B50468A04206460D460DD0E3682B436A
:103EB000E36015B12269134203D06068A168FFF77F
:103EC000D7FF2468A642F1D170BD00BFAFF30080D8
:103ED000134A70B52023946983F31188A36BD3B17F
:103EE00000260BE01168956B196010464B609A60D4
:103EF000DD609363FFF784FFA36B43B11A68D96851
:103F0000A1639342EED19E60A36B002BF6D1E36BCD
:103F1000A360FFF74DFE002383F3118870BD00BF3F
:103F200008120020AFF30080AFF30080AFF30080F1
:103F3000124B30B4044605689869E3688363AC4269
:103F400017D0C16B4BB11A68934203D0926891426B
:103F500038BF1146DB68002BF5D12B68AA6B816056
:103F6000236028465C60A560E260AC6330BCFFF76C
:103F700047BF0023A36030BC704700BF0812002079
:103F800038B5174B04469869202383F311882568B8
:103F9000E3688363AC421CD0C16B4BB11A68934297
:103FA00003D09268914238BF1146DB68002BF5D1EF
:103FB0002B68AA6B8160236028465C60E260A56084
:103FC000AC63FFF71DFFFFF7F3FD002383F31188B8
:103FD00038BD0023A360002383F3118838BD00BFE0
:103FE00008120020AFF30080AFF30080AFF3008031
:103FF00070B52F4B054680689C69002853D0A26895
:104000008368934206D2037F8260062B32D0072B4F
:104010001CD09BB12B4603E09968A268914202D361
:104020001B689D42F8D15A686260236014605C602E
:1040300025620620BDE87040FFF782BE90E80C00C4
:104040001A6002685360FFF7DBFEE3E790E80A00BE
:104050001960066A01684B60334602E09968914234
:1040600002D31B689E42F9D15A6842600360106017
:104070005860CFE790E80A001960066A01684B6053
:10408000334602E09968914202D31B689E42F9D1FF
:104090005A684260036010605860B068A268836824
:1040A0009342B0D3B6E7A36BEB60AC60A56370BD81
:1040B00008120020AFF30080AFF30080AFF3008060
:1040C00008B5202383F31188FFF792FF002383F3C1
:1040D000118808BDAFF30080AFF30080AFF300801C
:1040E000F8B50E4C002818BF044604F110063046FF
:1040F0000F46FFF7E5FFA3686BB10022144628CBFB
:1041000001342A44002BFAD107B13A603046FFF758
:1041100037FF2046F8BD1A461C46F5E7A00F0020E1
:10412000F8B550F8085C05F110070646A0F1080440
:1041300008353846FFF7C4FF2B46AB4204D0A342F4
:1041400002D31B68AB42FAD11A681AB1944201D368
:104150001346F2E756F8041C46F8082C1C6001F1DF
:10416000080256F8085CA018A8420AD05A6802F162
:10417000080119448C4212D03846BDE8F840FFF7D8
:10418000FFBE4068A25846F8082C0A18083246F8C4
:10419000042C5A6802F1080119448C42ECD156F8FB
:1041A000040C56F8081C1960024408325A6038465C
:1041B000BDE8F840FFF7E4BEAFF30080AFF3008046
:1041C000F8B5214E002818BF064606F11007073142
:1041D000384621F0070506F10804FFF771FF03E0F8
:1041E0005A68954212D91C462368002BF8D13846EC
:1041F000FFF7C6FE33682BB305F10800984708B3F4
:104200000660456000F108042046F8BD05F108018C
:10421000914209D91A6822601C46384644F8086B56
:10422000FFF7AEFE2046F8BD6FF00700401B03EB22
:10423000010E024418685850CEF80420C4F800E07B
:104240005D60E9E70024DFE7A00F0020AFF3008006
:1042500083680133002B836000DD704703681A68B0
:1042600002600021506018461962FFF7C9BD00BF07
:1042700070B5856881600135002D04460BDC6FF058
:1042800001066068436863601C60FFF7B9FD013593
:10429000012D0662F5D170BDAFF30080AFF3008051
:1042A000C20710B414D5264B196899424FF000028A
:1042B00004D00968994202F10102FAD15968994281
:1042C00004D04968994202F1FF32FAD1002A32D172
:1042D000830714D51A4B1C46002254F81C1FA14218
:1042E00004D00968A14202F10102FAD11B6AA3427B
:1042F00004D05B68A34202F1FF32FAD1DAB910F0C0
:10430000040015D00E4B1A699A424FF0000004D0F9
:1043100012699A4200F10100FAD15A699A4204D016
:1043200052699A4200F1FF30FAD1003018BF0120E3
:104330005DF8044B704701205DF8044B704700BFE7
:1043400008120020AFF30080AFF30080AFF30080CD
:10435000EFF30583C3F308031BB9202383F311880C
:104360007047202383F31188704700BFAFF30080AC
:10437000FEE700BFAFF30080AFF30080AFF3008033
:1043800008B50B4B00221A70202383F311880948CB
:10439000C3680BB1FFF7FCFA0648074A42F21071F6
:1043A0000023FCF785F9002383F3118808BD00BFC3
:1043B000C4080020F808002051360008AFF3008040
:1043C00003468068421E002A10B49A6003DB002076
:1043D0005DF8044B704761B1084A926913625C68EA
:1043E000052082E8180022605A605DF8044BFCF753
:1043F0009FB998604FF0FF30EAE700BF0812002035
:1044000070B52023064683F311880F4D2846FFF729
:10441000D7FF044690B955F8141C55F8180C0A1D1E
:10442000824245F8142C09480E6024BF55F81C2C14
:1044300045F8142CFFF70CFFFFF7BAFB002383F3BA
:104440001188204670BD00BF5C0800205008002085
:1044500070B52023064683F31188104C2046FFF7E1
:10446000AFFF054670B954F8103C54F81C1C043BCF
:104470008B4244F8103C0AD31E600948FFF7E8FE5F
:10448000FFF796FB002383F31188284670BD54F88C
:10449000183C043B44F8103CEEE700BF5C080020E9
:1044A00050080020AFF30080AFF30080AFF300802E
:1044B00070B52023064683F31188104D2846FFF778
:1044C0007FFF0446A0B955F8042C55F80C1C106861
:1044D00004328A4245F8042C306028BF55F8102C6D
:1044E000074828BF45F8042CFFF7B2FEFFF760FB32
:1044F000002383F31188204670BD00BF50080020C0
:104500005C08002000000000000000000000000027
:104510002DE9F041202382B083F311889E4D696A12
:104520004F1F794279410120FCF752FB002840F0EF
:104530002C8180F31188422420464FF0FF31FFF791
:104540005FFFD0F1010138BF002102200134FCF7E8
:104550003FFB80B9462CEFD14FF0FF314120FFF7F0
:1045600077FFD0F1010138BF00210320FCF730FBB9
:10457000002800F0158102B0BDE8F08184F31188B5
:1045800086F31188B969D1F1010138BF00211F20DC
:10459000FCF71EFB002840F0B28284F31188F96812
:1045A000BB68CA1A514251413046FCF711FB002842
:1045B000E1D186F311884520FCF7EAF9D0F1010139
:1045C00038BF00212120FCF703FB0028D3D1442071
:1045D000FCF7DEF9D0F1010138BF00212220FCF701
:1045E000F7FA0028C7D14320FCF7D2F9D0F1010136
:1045F00038BF00212320FCF7EBFA0028BBD1422072
:10460000FCF7C6F9D0F1010138BF00212420FCF7E6
:10461000DFFA0028AFD14120FCF7BAF900230146A8
:1046200083F31188CB1A594259412520FCF7D0FA5F
:104630000028A0D1E968AB68B1EB0308D8F100010C
:1046400051EB08012620FCF7C3FA002893D18046DD
:1046500005242027202687F3118801A8FCF7B8F944
:10466000014688F31188D1F1010138BF00212720CC
:10467000FCF7AEFA00287FF47EAF9DF80400FFF748
:1046800067F8013CE6D128204449FCF779FA002874
:104690007FF471AF86F31188696A3F4DB1F1050C63
:1046A000DCF1000151EB0C012920FCF791FA002804
:1046B00040F0258284F3118886F31188A969D1F12D
:1046C000010138BF00212A20FCF782FA002840F0BF
:1046D000168284F31188E968AB68B1EB030EDEF152
:1046E000000151EB0E012B20FCF772FA00287FF439
:1046F00042AF86F311882B686A68AB60D11A05F166
:104700001C008910EB60FFF7B3FD05F11000214696
:10471000FFF7AEFDFFF74CFA84F3118886F311889A
:10472000696A4F1F794279412C20FCF751FA002821
:1047300040F0E58184F3118886F31188A969D1F1ED
:10474000010138BF00212D20FCF742FA002840F07B
:10475000D68184F3118886F311882968AB68CA1A58
:10476000514251412E20FCF733FA002840F0C78116
:1047700084F3118886F311882968EB68CB1A5942B3
:104780004FF02F005941FCF723FA002383F31188DF
:1047900002B0BDE8F08100BF4008002018680008A2
:1047A00001215820FFF72CFEB0F1FF367142714114
:1047B0000420FCF70DFA044600287FF4DCAE202626
:1047C00086F311885820FCF7C3F8014684F311885A
:1047D000B1F1FF34614261410520FCF7F9F900288D
:1047E0007FF4C9AE01215820FFF732FEB0F1FF324D
:1047F000514251410620FCF7EBF9044600287FF4B2
:10480000BAAE86F311885820FCF7C2F8014684F34B
:104810001188B1F1FF3359424FF007005941FCF7BD
:10482000D7F9804600287FF4A6AE86F31188696A1E
:10483000B44CD1F1010138BF00210820FCF7C8F9C0
:10484000074610B188F3118895E680F3118886F346
:104850001188A169B1F10508D8F1000151EB0801F7
:104860000920FCF7B5F910B187F3118883E680F3CE
:10487000118886F31188E168A368B1EB030CDCF1C1
:1048800000014FF00A0051EB0C01FCF7A1F90023E5
:1048900000287FF47BAF83F31188052405E09DF8A1
:1048A0000400FEF755FF013C0ED04FF0FF3101A888
:1048B000FFF7FEFDD0F1010138BF00210B20FCF70E
:1048C00087F90028EBD056E60C208F49FCF758F901
:1048D00000287FF450AE4FF0FF314720FFF790FDE6
:1048E000D0F1010138BF00210D20FCF771F900283B
:1048F0007FF441AE4FF0FF3101A8FFF7D9FDD0F1B1
:10490000010138BF00210E20FCF762F900287FF476
:1049100032AE2968AB687B4EB1EB030EDEF10001CD
:1049200051EB0E010F20FCF753F900287FF423AE62
:104930003168F368CF1A794279411020FCF748F9C1
:1049400000287FF418AE012101A8FFF7B1FDB0F1F6
:10495000FF32514251411120FCF73AF900287FF40F
:104960000AAE202787F3118801A8FCF731F8014629
:1049700084F31188B1F1FF33594259411220FCF7F9
:1049800027F900287FF4F7AD87F31188716AB1F138
:104990000508D8F1000151EB08011320FCF718F9C4
:1049A00000287FF4F2AE4FF0000888F3118820242D
:1049B00084F31188A969534EB1EB080CDCF10001B6
:1049C00051EB0C011420FCF703F9074600287FF493
:1049D00039AF80F3118884F31188F168B368B1EBC3
:1049E000030EDEF1000151EB0E011520FCF7F0F88B
:1049F00000287FF439AF80F3118884F311884120B7
:104A0000FBF7A6FFD0F1010138BF00211620FCF70B
:104A1000DFF800287FF4AFAD4220FBF799FFD0F11B
:104A2000010138BF00211720FCF7D2F800287FF4DD
:104A3000A2AD4320FBF78CFFD0F1010138BF00216C
:104A40001820FCF7C5F800287FF495AD4420FBF74B
:104A50007FFFD0F1010138BF00211920FCF7B8F821
:104A6000074600287FF487AD4520FBF771FF01461C
:104A700087F31188D1F1010138BF00211A20FCF71A
:104A8000A7F800287FF477ADF168B368CE1A7142B9
:104A900071411B20FCF79CF800287FF46CADA04608
:104AA00007460524202688F3118801A8FBF790FF0C
:104AB000014687F31188D1F1010138BF00211C2084
:104AC000FCF786F800287FF456AD9DF80400FEF749
:104AD0003FFE013CE6D11D200B49FCF751F80028B0
:104AE0007FF449AD86F31188696A064F481F414239
:104AF00041411E20FCF76CF800283FF43FAD84F3E1
:104B0000118838E54008002018680008AFF30080DD
:104B100008B50146202383F311880820FBF708FE1F
:104B2000002383F3118808BDAFF30080AFF300804A
:104B300008B5094B094A9B69094C9A614FF4005525
:104B40002E46268341F28830FFF7E2FF658341F26B
:104B50008830FFF7DDFFF4E708120020C068000886
:104B6000000C0240AFF30080AFF30080AFF3008091
:104B700010B504464FF4FA70FFF7CAFF202383F301
:104B8000118801212046FFF773F9FFF711F8002380
:104B900083F3118810BD00BFAFF30080AFF3008036
:104BA00010B5064C40F2DC50FFF7B2FF2046FFF78D
:104BB00087FA2046BDE81040FFF7E2B93008002030
:104BC00010B5064C4FF4FA70FFF7A2FF2046FFF72E
:104BD00077FA2046BDE81040FFF7D2B92008002040
:104BE00008B54FF4FA70FFF793FF202383F3118881
:104BF0000448FFF72DFBFEF7DBFF002383F311884A
:104C000008BD00BF00080020AFF30080AFF30080B4
:104C100008B50120FFF77CFF202383F311884FF0B4
:104C200080420023506A83F3118808BDAFF30080EF
:104C3000F8B5FFF7EDFF202686F311884FF0804589
:104C400000236C6A83F311884FF47A70FFF760FFDA
:104C500004F57A7104F2EB320120FBF771FF00B129
:104C6000F8BD86F311886C6A80F311884FF47A706E
:104C7000FFF74EFF04F57A7104F2EB320220FBF7E6
:104C80005FFF0028ECD186F311886C6A80F31188ED
:104C900042F21070FFF73CFF04F51C510A46133234
:104CA00010310320FBF74CFF0028D9D186F311887F
:104CB0006F6A80F3118807F57A7486F31188696A40
:104CC000611A0AD1002383F311880420214607F2D8
:104CD000EB32BDE8F840FBF733BF0820FBF728FDB7
:104CE000F0E700BFAFF30080AFF30080AFF30080C8
:104CF00070B520230E46044683F31188C3692BB197
:104D0000984703E0FBF73CFD002816DBA56820462A
:104D10003146002DF6D0A269A0682169531C8B4250
:104D200000F1FF30A361A06028BFE368107828BFBE
:104D3000A361002383F3118870BD85F3118870BDD2
:104D400002484FF4FA61FFF7D3BF00BF6C080020A0
:104D50000C30FFF7CDBF00BFAFF30080AFF3008092
:104D60000C304FF0FF31FFF7C3BF00BFAFF300803F
:104D70002DE9F84F04461D46D0F81C804FF0200B5B
:104D80008BF31188002601EB020A01F10109B8F149
:104D9000000F05D02046C04702E0FBF7F1FCF8B950
:104DA000A76820462946002FF7D0A369A1685A1C9E
:104DB0000139A261A1601B7809F8013C2369A2694D
:104DC0009A4224BFE368A361002383F31188D1458D
:104DD00006F1010606D08BF3118809F10109D6E727
:104DE00087F311883046BDE8F88F00BFAFF300802D
:104DF0000C30FFF7BDBF00BFAFF30080AFF3008002
:104E00000C304FF0FF33FFF7B3BF00BFAFF30080AC
:104E1000F8B504460F461646202383F3118803E0B5
:104E2000FBF7AEFC002819DBA56820463146002DB3
:104E3000F6D06369A1685A1C01396261A1601F70D4
:104E4000236962699A4224BFE3686361E3690BB135
:104E500020469847002080F31188F8BD85F311881B
:104E6000F8BD00BFAFF30080AFF30080AFF3008068
:104E7000024800214FF4FA62FFF7CABF90080020F1
:104E80003030FFF7C5BF00BFAFF30080AFF3008045
:104E900030304FF0FF32FFF7BBBF00BFAFF30080F1
:104EA0002DE9F04F83B004460D4616460193D0F825
:104EB0001C804FF0200A8AF311880027B946A368A6
:104EC00005F1010B204603B36369A1684A1E591C12
:104ED0006161A2602978197023696169994224BFD0
:104EE000E3686361B8F1000F00D0C04789F311880F
:104EF000013E07F1010712D08AF31188A3685D46CD
:104F000005F1010B2046002BDED1204601990093CC
:104F1000FBF736FC009B0028D1D083F3118838467C
:104F200003B0BDE8F08F00BFAFF30080AFF30080A7
:104F30003030FFF7B5BF00BFAFF30080AFF30080A4
:104F400030304FF0FF33FFF7ABBF00BFAFF300804F
:104F50002DE9F04F20258DB085F31188AC4CA36965
:104F60005A6B42F007025A63002383F31188FBF760
:104F7000AFFCB0F10109D9F1000151EB09010120A9
:104F8000FBF726FE10B10DB0BDE8F08FFBF7A0FCDB
:104F9000B0F10208D8F1000151EB08010220FBF743
:104FA00017FE0028EFD1FBF793FCB0F1040CDCF105
:104FB000000151EB0C010320FBF70AFE0028E2D1AF
:104FC000FBF75EFCD0F1010138BF00210420FBF7A4
:104FD000FFFD06460028D6D1FFF71AFE85F311889B
:104FE0004FF08048D8F8247086F31188A169894B66
:104FF0008A6889480091013A4FF4A471FEF760FE77
:10500000864E3060FBF764FC07F5FA71814607F2C3
:1050100026220520FBF794FD0028B4D1B9F1010E3A
:10502000DEF1000151EB0E010620FBF7D1FD002857
:10503000A9D1FBF725FCD0F1010138BF00210720E1
:10504000FBF7C6FD074600289DD1FCF7E1FE85F37E
:105050001188A3695A6B42F005025A6387F31188DD
:10506000FBF756FC471F794279410820FBF7B0FD5A
:10507000002888D1FBF704FCD0F1010138BF0021E2
:105080000920FBF7A5FD074600287FF47CAFFFF75A
:10509000BFFD85F31188D8F8245087F31188A169E2
:1050A0005C4B8A685C480091013A4FF4A471FEF7AA
:1050B00007FE3060FBF72CFC05F5FA71074605F298
:1050C00026220A20FBF73CFD00287FF45CAF781E07
:1050D000414241410B20FBF77BFD00287FF453AF99
:1050E000FBF7CEFBD0F1010138BF00210C20FBF70C
:1050F0006FFD074600287FF446AFFCF789FE484D58
:10510000484B2D601B604FF0200A8AF311880DF187
:1051100030092A6849F8282DA169059701204FF028
:10512000FF3203910490C5F80090069287F311882E
:105130008AF311880DF13008196848F8141D04200D
:10514000A1690A970B9208910990C3F8008087F330
:105150001188FFF75DFD8AF311884FF08043D3F883
:1051600024B087F31188A3692F499A682A480091CF
:10517000013A4FF4A4712D4BFEF7A2FD0BF5FA771F
:105180003060A4698AF31188636B03F00502052A75
:1051900005D0052323620B20FEF7D2FD636B23F0BD
:1051A00005036363002383F311880D2039460BF256
:1051B0002622FBF7C5FC00287FF4E5AEFBF760FB79
:1051C000D0F1010138BF00210E20FBF701FD0028BE
:1051D0007FF4D9AE134CFCF71BFE49461048FEF78E
:1051E00057FC41462046FEF753FC29684A1B5142B2
:1051F00051410F20FBF7ECFC00287FF4C4AE21687E
:105200000B1B594259411020FBF7E2FCBBE600BFE3
:1052100008120020714B00082809002058130020B4
:10522000B40800206808002094680008C11900082C
:10523000F0B587B003AD00240395049505942026AE
:1052400086F3118828462146FFF712F8FEF7B0FCD6
:1052500084F3118886F311880599A1424FF001006B
:10526000CCBF00210121FBF7B3FC074618B184F342
:10527000118807B0F0BD80F311883F4B3F489A6911
:105280003F4B92680095013A4FF4A471FEF718FD68
:105290003C4B18602846FEF78BFD86F31188059974
:1052A0000029CCBF002101210220FBF791FC18B19D
:1052B00087F3118807B0F0BD80F3118886F3118859
:1052C000059B002B22DDFEF773FC002484F311887C
:1052D000202787F311880599A1424FF00300D4BF1E
:1052E00000210121FBF774FC06460028BFD180F3A2
:1052F000118887F3118805994A1E514251410420B3
:10530000FBF766FC30B186F31188B2E72846FEF75A
:105310009FFFD8E780F3118887F31188059B002B46
:1053200022DDFEF745FC002484F31188202686F355
:1053300011880599A1424FF00300D4BF002101213B
:10534000FBF746FC0546002891D180F3118886F3CF
:10535000118805994B1E594259410520FBF738FC2D
:1053600030B185F3118884E72846FEF771FFD8E74E
:1053700080F311887DE700BF081200202809002073
:10538000E12E000858130020AFF30080AFF3008037
:1053900070B5554C2023A26983F31188536B3BB938
:1053A00083F3118801210120FBF712FC80B170BD4D
:1053B0005942194023EA01035363002383F3118800
:1053C000C81A414241410120FBF702FC0028EED1FE
:1053D000A369202282F311885A6B002A6FD0586388
:1053E00080F3118801460220FBF7F2FB0028DED192
:1053F000A369202282F311885A6B013263D080F3B3
:105400001188012001460320FBF7E2FB0028CED1E2
:10541000A669202383F31188756B4DB94FF0FF33D4
:105420000A2033620146FBF783F900284FDB756BD6
:105430006942294025EA01057563002383F3118839
:10544000CA1A514251410420FBF7C2FB0028AED1D9
:10545000A569202383F311886E6B4EB94FF0FF339B
:105460000A202B620146FBF763F9002833DB6E6BE1
:1054700000236B6383F31188F31A594259410520C5
:10548000FBF7A6FB0546002891D1A469202383F3EE
:105490001188636B013308D04FF0FF3323620B2078
:1054A0000A21FBF745F9002819DB0023636383F326
:1054B000118829460620BDE87040FBF789BB80F3C0
:1054C000118801208EE7586380F311889AE785F3ED
:1054D00011880121B7E786F311880121CFE785F311
:1054E00011880125E5E700BF08120020AFF3008016
:1054F0002DE9F8437E4E346D6369A5691D40E804CB
:10550000656136D4AB0448BFD4F808382F0704D5FA
:105510007368DB680BB176489847E80600F1A28013
:105520006903D4F818480BD5E20700F1C680A30739
:1055300000F1CA80670700F1CE80260700F1D28013
:105540002D030AD5E00300F1A980A10300F1AD808D
:10555000620300F19B80230303D4BDE8F843FEF708
:105560004FBA63480321FEF7CBF9BDE8F843FEF7D5
:1055700047BA002302212022A6F84C3086F84E308C
:1055800086F84F3033617361B36186F8343033810C
:1055900073813170226123699906FCD4554A5168A0
:1055A00053685B1A0B2BFBD9D6F854C0DCF8087093
:1055B00000224FF00060FF2104EB42130132BA4297
:1055C000C3F80009C3F8000BC3F80819C3F8081B97
:1055D000F2D9DCF80000B065DCF800204FF0FF37AE
:1055E0004FF001111023C4F81878C4F81C18626237
:1055F00023612369DA06FCD43E4A516853685B1A7A
:105600000B2BFBD9D4F8001873683B4AD3F800C0C1
:10561000DFF8E88021F4FE63C4F80038A36943F49E
:1056200040230927002100F1100943F0100340F442
:105630008010A361C4F81078C6F85890C4F81478A4
:10564000C6F80C80C4F8101BC4F8002BC4F810195D
:10565000C4F80029A062BCF1000F3FF453AF244806
:10566000E0474FE7202383F31188A269336E204976
:1056700022F01002A2612BB100220A6618461A62BB
:10568000FEF7BEFB002383F3118849E71848022187
:10569000FEF736F923037FF560AF62E70021144877
:1056A000FEF72EF9A1037FF553AF11480121FEF754
:1056B00027F962037FF54FAFE8E70D480021FDF7BA
:1056C00057FFA3077FF536AF09480121FDF750FFCB
:1056D00067077FF532AF06480221FDF749FF26072D
:1056E0007FF52EAF02480321FDF742FF28E700BFF8
:1056F000C80F0020001000E040800010F068000893
:105700002C492D4B4FF080504FF4404208641A60F2
:105710000B6843F001030B600B68264A9807FBD522
:10572000936823F0030393609368936011468B683A
:10573000204A13F00C03FAD1116801F0F90111604D
:105740009360136843F480331360136819499B0313
:10575000FBD54B6F43F001034B674B6F154A98071E
:10576000FBD5164B53601368134943F080731360E5
:105770004B685A04FCD50F490B680E4A9B01FBD5B8
:105780000F4B1049916040F205711960936843F026
:105790000203936011468B68064A03F00C03082B42
:1057A000F9D1536C43F480435364536E43F4804304
:1057B00053667047003802400070004008544007AC
:1057C000003C024000940838AFF30080AFF3008043
:1057D00038B52022034682F311880E4A9469606A24
:1057E000236204F12405A84206D003686362FEF731
:1057F00007FB606AA842F8D1637F9B0704D1636905
:1058000022691A61226953610F20BDE83840FEF712
:1058100097BA00BF08120020AFF30080AFF30080FA
:10582000FFF7D6BFAFF30080AFF30080AFF3008087
:10583000FEF79EB9AFF30080AFF30080AFF30080B6
:10584000FEE700BFAFF30080AFF30080AFF300804E
:10585000704700BFAFF30080AFF30080AFF300806C
:10586000704700BFAFF30080AFF30080AFF300805C
:10587000C24BC3481A694FF0FF3100222DE980481E
:1058800019611A615C6959615A611C6A64F080543B
:105890001C621A625C6A59625A62196C41F080514A
:1058A0001964016841F480710160196F01F440715D
:1058B000B1F5007F8DB003D04FF4803119671A67BE
:1058C000AF4ADFF8B8825668AE49DFF8F492DFF8E5
:1058D000F4E2DFF8F4A2DFF8F4C2AB4FAB4BAC4D0F
:1058E000AC4CAD48DFF8E8B226F400765660D8F844
:1058F00030206FEA52226FEA4222C8F83020D8F8EE
:1059000050206FEA52226FEA42220026C8F8502047
:105910006FF4A8424E608A60C1F80C904FF6FF7297
:10592000DFF8B0924A61C1F820A0C1F82490DFF8F6
:10593000A8A2C1F800A04FF41079CEF804904FF05F
:10594000FF31DFF898A2CEF808104FF08069CEF84A
:105950000CA0CEF81420CEF82090DFF884924FF0FF
:10596000400ACEF824A0CEF8009009F1AA49A9F582
:105970004309A9F62C39CCF80460CCF80810CCF80F
:105980000C904FF0C049CCF81420CCF82090DFF8F0
:105990005492CCF82490DFF85092CCF80090DFF8C5
:1059A0004CC27E60B960C7F80CC040F6FF7CC7F8F7
:1059B00014C0DFF83CC23E627E62C7F800C05E6081
:1059C0009960DE605A611E625E62C3F800A06E607C
:1059D000A960EE606A612E626E622E606660A160F0
:1059E000E660626126626662266046608160C6602B
:1059F00042610662466206606848CBF80460DFF8E0
:105A00009CE1CBF80810CBF80C60CBF814200246D0
:105A1000CBF82060624FCBF82460CBF8006083465F
:105A2000604B4EF8047BD06210655F4D466100F11B
:105A30007402866200F1540400F10C0C00F130078E
:105A4000CBF8402064300122CBF84C50DFF8A49111
:105A50008BF8082010251A705E60DE619E621E625F
:105A6000DE625E621E631E815E81CBF87490CBF8AD
:105A700004E0CBF80CC0CBF810C0CBF81840CBF842
:105A80002440CBF82040CBF81C00CBF83C00CBF8EE
:105A90004800CBF84400CBF83070CBF83470CBF82A
:105AA00038501E66D8F840E0404C5E664EEA020E62
:105AB000C8F840E0D4F808C03D48DFF83C913D4FBD
:105AC000DFF838E14CEA020CC4F808C04FF080441B
:105AD00042F2CF0CC4F828C0E1624FF0800CA661FE
